{
  "_format": "hh-sol-artifact-1",
  "contractName": "Resources",
  "sourceName": "contracts/Resources.sol",
  "abi": [
    {
      "inputs": [
        {
          "internalType": "string",
          "name": "_title",
          "type": "string"
        },
        {
          "internalType": "string",
          "name": "_url",
          "type": "string"
        },
        {
          "internalType": "string",
          "name": "_description",
          "type": "string"
        }
      ],
      "name": "create",
      "outputs": [],
      "stateMutability": "nonpayable",
      "type": "function"
    },
    {
      "inputs": [
        {
          "internalType": "uint256",
          "name": "",
          "type": "uint256"
        }
      ],
      "name": "createdResources",
      "outputs": [
        {
          "internalType": "string",
          "name": "title",
          "type": "string"
        },
        {
          "internalType": "string",
          "name": "url",
          "type": "string"
        },
        {
          "internalType": "string",
          "name": "description",
          "type": "string"
        }
      ],
      "stateMutability": "view",
      "type": "function"
    },
    {
      "inputs": [],
      "name": "getResources",
      "outputs": [
        {
          "components": [
            {
              "internalType": "string",
              "name": "title",
              "type": "string"
            },
            {
              "internalType": "string",
              "name": "url",
              "type": "string"
            },
            {
              "internalType": "string",
              "name": "description",
              "type": "string"
            }
          ],
          "internalType": "struct Resources.Resource[]",
          "name": "",
          "type": "tuple[]"
        }
      ],
      "stateMutability": "view",
      "type": "function"
    }
  ],
  "bytecode": "0x608060405234801561001057600080fd5b50610b0a806100206000396000f3fe608060405234801561001057600080fd5b50600436106100415760003560e01c80635d28560a14610046578063c1cc57b014610062578063c9248f8214610080575b600080fd5b610060600480360381019061005b9190610714565b6100b2565b005b61006a61022b565b604051610077919061093a565b60405180910390f35b61009a600480360381019061009591906107b8565b610440565b6040516100a99392919061095c565b60405180910390f35b6000604051806060016040528088888080601f016020809104026020016040519081016040528093929190818152602001838380828437600081840152601f19601f82011690508083019250505050505050815260200186868080601f016020809104026020016040519081016040528093929190818152602001838380828437600081840152601f19601f82011690508083019250505050505050815260200184848080601f016020809104026020016040519081016040528093929190818152602001838380828437600081840152601f19601f820116905080830192505050505050508152509050600081908060018154018082558091505060019003906000526020600020906003020160009091909190915060008201518160000190805190602001906101e5929190610612565b506020820151816001019080519060200190610202929190610612565b50604082015181600201908051906020019061021f929190610612565b50505050505050505050565b60606000805480602002602001604051908101604052809291908181526020016000905b82821015610437578382906000526020600020906003020160405180606001604052908160008201805461028290610a4b565b80601f01602080910402602001604051908101604052809291908181526020018280546102ae90610a4b565b80156102fb5780601f106102d0576101008083540402835291602001916102fb565b820191906000526020600020905b8154815290600101906020018083116102de57829003601f168201915b5050505050815260200160018201805461031490610a4b565b80601f016020809104026020016040519081016040528092919081815260200182805461034090610a4b565b801561038d5780601f106103625761010080835404028352916020019161038d565b820191906000526020600020905b81548152906001019060200180831161037057829003601f168201915b505050505081526020016002820180546103a690610a4b565b80601f01602080910402602001604051908101604052809291908181526020018280546103d290610a4b565b801561041f5780601f106103f45761010080835404028352916020019161041f565b820191906000526020600020905b81548152906001019060200180831161040257829003601f168201915b5050505050815250508152602001906001019061024f565b50505050905090565b6000818154811061045057600080fd5b906000526020600020906003020160009150905080600001805461047390610a4b565b80601f016020809104026020016040519081016040528092919081815260200182805461049f90610a4b565b80156104ec5780601f106104c1576101008083540402835291602001916104ec565b820191906000526020600020905b8154815290600101906020018083116104cf57829003601f168201915b50505050509080600101805461050190610a4b565b80601f016020809104026020016040519081016040528092919081815260200182805461052d90610a4b565b801561057a5780601f1061054f5761010080835404028352916020019161057a565b820191906000526020600020905b81548152906001019060200180831161055d57829003601f168201915b50505050509080600201805461058f90610a4b565b80601f01602080910402602001604051908101604052809291908181526020018280546105bb90610a4b565b80156106085780601f106105dd57610100808354040283529160200191610608565b820191906000526020600020905b8154815290600101906020018083116105eb57829003601f168201915b5050505050905083565b82805461061e90610a4b565b90600052602060002090601f0160209004810192826106405760008555610687565b82601f1061065957805160ff1916838001178555610687565b82800160010185558215610687579182015b8281111561068657825182559160200191906001019061066b565b5b5090506106949190610698565b5090565b5b808211156106b1576000816000905550600101610699565b5090565b60008083601f8401126106c757600080fd5b8235905067ffffffffffffffff8111156106e057600080fd5b6020830191508360018202830111156106f857600080fd5b9250929050565b60008135905061070e81610abd565b92915050565b6000806000806000806060878903121561072d57600080fd5b600087013567ffffffffffffffff81111561074757600080fd5b61075389828a016106b5565b9650965050602087013567ffffffffffffffff81111561077257600080fd5b61077e89828a016106b5565b9450945050604087013567ffffffffffffffff81111561079d57600080fd5b6107a989828a016106b5565b92509250509295509295509295565b6000602082840312156107ca57600080fd5b60006107d8848285016106ff565b91505092915050565b60006107ed83836108dc565b905092915050565b6000610800826109b8565b61080a81856109db565b93508360208202850161081c856109a8565b8060005b85811015610858578484038952815161083985826107e1565b9450610844836109ce565b925060208a01995050600181019050610820565b50829750879550505050505092915050565b6000610875826109c3565b61087f81856109ec565b935061088f818560208601610a18565b61089881610aac565b840191505092915050565b60006108ae826109c3565b6108b881856109fd565b93506108c8818560208601610a18565b6108d181610aac565b840191505092915050565b600060608301600083015184820360008601526108f9828261086a565b91505060208301518482036020860152610913828261086a565b9150506040830151848203604086015261092d828261086a565b9150508091505092915050565b6000602082019050818103600083015261095481846107f5565b905092915050565b6000606082019050818103600083015261097681866108a3565b9050818103602083015261098a81856108a3565b9050818103604083015261099e81846108a3565b9050949350505050565b6000819050602082019050919050565b600081519050919050565b600081519050919050565b6000602082019050919050565b600082825260208201905092915050565b600082825260208201905092915050565b600082825260208201905092915050565b6000819050919050565b60005b83811015610a36578082015181840152602081019050610a1b565b83811115610a45576000848401525b50505050565b60006002820490506001821680610a6357607f821691505b60208210811415610a7757610a76610a7d565b5b50919050565b7f4e487b7100000000000000000000000000000000000000000000000000000000600052602260045260246000fd5b6000601f19601f8301169050919050565b610ac681610a0e565b8114610ad157600080fd5b5056fea2646970667358221220742346ba037b83d6e7c3f01e8703b2342df46f805a01ba138eca96981dcc737664736f6c63430008040033",
  "linkReferences": {},
  "deployedLinkReferences": {}
}